{
  "_format": "hh-sol-artifact-1",
  "contractName": "BookStore",
  "sourceName": "contracts/BookStore.sol",
  "abi": [
    {
      "anonymous": false,
      "inputs": [
        {
          "indexed": false,
          "internalType": "address",
          "name": "recipent",
          "type": "address"
        },
        {
          "indexed": false,
          "internalType": "uint256",
          "name": "bookId",
          "type": "uint256"
        }
      ],
      "name": "AddBook",
      "type": "event"
    },
    {
      "anonymous": false,
      "inputs": [
        {
          "indexed": false,
          "internalType": "address",
          "name": "recipent",
          "type": "address"
        },
        {
          "indexed": false,
          "internalType": "uint256",
          "name": "bookId",
          "type": "uint256"
        }
      ],
      "name": "BuyBook",
      "type": "event"
    },
    {
      "anonymous": false,
      "inputs": [
        {
          "indexed": false,
          "internalType": "address",
          "name": "recipent",
          "type": "address"
        },
        {
          "indexed": false,
          "internalType": "uint256",
          "name": "bookId",
          "type": "uint256"
        }
      ],
      "name": "SetBookUpdate",
      "type": "event"
    },
    {
      "anonymous": false,
      "inputs": [
        {
          "indexed": false,
          "internalType": "uint256",
          "name": "bookId",
          "type": "uint256"
        },
        {
          "indexed": false,
          "internalType": "bool",
          "name": "status",
          "type": "bool"
        }
      ],
      "name": "SetStatus",
      "type": "event"
    },
    {
      "inputs": [
        {
          "internalType": "string",
          "name": "name",
          "type": "string"
        },
        {
          "internalType": "uint16",
          "name": "year",
          "type": "uint16"
        },
        {
          "internalType": "string",
          "name": "author",
          "type": "string"
        },
        {
          "internalType": "string",
          "name": "url",
          "type": "string"
        },
        {
          "internalType": "string",
          "name": "description",
          "type": "string"
        },
        {
          "internalType": "uint16",
          "name": "price",
          "type": "uint16"
        },
        {
          "internalType": "bool",
          "name": "status",
          "type": "bool"
        }
      ],
      "name": "addBook",
      "outputs": [],
      "stateMutability": "nonpayable",
      "type": "function"
    },
    {
      "inputs": [
        {
          "internalType": "string",
          "name": "dateTime",
          "type": "string"
        },
        {
          "internalType": "uint256",
          "name": "bookId",
          "type": "uint256"
        }
      ],
      "name": "buyBook",
      "outputs": [],
      "stateMutability": "nonpayable",
      "type": "function"
    },
    {
      "inputs": [
        {
          "internalType": "uint256",
          "name": "bookId",
          "type": "uint256"
        },
        {
          "internalType": "string",
          "name": "name",
          "type": "string"
        },
        {
          "internalType": "uint16",
          "name": "year",
          "type": "uint16"
        },
        {
          "internalType": "string",
          "name": "author",
          "type": "string"
        },
        {
          "internalType": "string",
          "name": "url",
          "type": "string"
        },
        {
          "internalType": "string",
          "name": "description",
          "type": "string"
        },
        {
          "internalType": "uint16",
          "name": "price",
          "type": "uint16"
        }
      ],
      "name": "editBookInfo",
      "outputs": [],
      "stateMutability": "nonpayable",
      "type": "function"
    },
    {
      "inputs": [],
      "name": "getAvailableBooks",
      "outputs": [
        {
          "components": [
            {
              "internalType": "uint256",
              "name": "id",
              "type": "uint256"
            },
            {
              "internalType": "address",
              "name": "owner",
              "type": "address"
            },
            {
              "internalType": "string",
              "name": "name",
              "type": "string"
            },
            {
              "internalType": "uint256",
              "name": "year",
              "type": "uint256"
            },
            {
              "internalType": "string",
              "name": "author",
              "type": "string"
            },
            {
              "internalType": "string",
              "name": "url",
              "type": "string"
            },
            {
              "internalType": "string",
              "name": "description",
              "type": "string"
            },
            {
              "internalType": "uint256",
              "name": "price",
              "type": "uint256"
            },
            {
              "internalType": "bool",
              "name": "status",
              "type": "bool"
            }
          ],
          "internalType": "struct BookStore.Book[]",
          "name": "",
          "type": "tuple[]"
        }
      ],
      "stateMutability": "view",
      "type": "function"
    },
    {
      "inputs": [],
      "name": "getCollection",
      "outputs": [
        {
          "components": [
            {
              "internalType": "uint256",
              "name": "id",
              "type": "uint256"
            },
            {
              "internalType": "address",
              "name": "owner",
              "type": "address"
            },
            {
              "internalType": "string",
              "name": "name",
              "type": "string"
            },
            {
              "internalType": "uint256",
              "name": "year",
              "type": "uint256"
            },
            {
              "internalType": "string",
              "name": "author",
              "type": "string"
            },
            {
              "internalType": "string",
              "name": "url",
              "type": "string"
            },
            {
              "internalType": "string",
              "name": "description",
              "type": "string"
            },
            {
              "internalType": "uint256",
              "name": "price",
              "type": "uint256"
            },
            {
              "internalType": "bool",
              "name": "status",
              "type": "bool"
            }
          ],
          "internalType": "struct BookStore.Book[]",
          "name": "",
          "type": "tuple[]"
        },
        {
          "components": [
            {
              "internalType": "uint256",
              "name": "id",
              "type": "uint256"
            },
            {
              "internalType": "string",
              "name": "dateTime",
              "type": "string"
            },
            {
              "internalType": "uint256",
              "name": "bookId",
              "type": "uint256"
            }
          ],
          "internalType": "struct BookStore.PurchasedBook[]",
          "name": "",
          "type": "tuple[]"
        }
      ],
      "stateMutability": "view",
      "type": "function"
    },
    {
      "inputs": [],
      "name": "getNotAvailableBooks",
      "outputs": [
        {
          "components": [
            {
              "internalType": "uint256",
              "name": "id",
              "type": "uint256"
            },
            {
              "internalType": "address",
              "name": "owner",
              "type": "address"
            },
            {
              "internalType": "string",
              "name": "name",
              "type": "string"
            },
            {
              "internalType": "uint256",
              "name": "year",
              "type": "uint256"
            },
            {
              "internalType": "string",
              "name": "author",
              "type": "string"
            },
            {
              "internalType": "string",
              "name": "url",
              "type": "string"
            },
            {
              "internalType": "string",
              "name": "description",
              "type": "string"
            },
            {
              "internalType": "uint256",
              "name": "price",
              "type": "uint256"
            },
            {
              "internalType": "bool",
              "name": "status",
              "type": "bool"
            }
          ],
          "internalType": "struct BookStore.Book[]",
          "name": "",
          "type": "tuple[]"
        }
      ],
      "stateMutability": "view",
      "type": "function"
    },
    {
      "inputs": [
        {
          "internalType": "uint256",
          "name": "id",
          "type": "uint256"
        }
      ],
      "name": "getSpecificBook",
      "outputs": [
        {
          "components": [
            {
              "internalType": "uint256",
              "name": "id",
              "type": "uint256"
            },
            {
              "internalType": "address",
              "name": "owner",
              "type": "address"
            },
            {
              "internalType": "string",
              "name": "name",
              "type": "string"
            },
            {
              "internalType": "uint256",
              "name": "year",
              "type": "uint256"
            },
            {
              "internalType": "string",
              "name": "author",
              "type": "string"
            },
            {
              "internalType": "string",
              "name": "url",
              "type": "string"
            },
            {
              "internalType": "string",
              "name": "description",
              "type": "string"
            },
            {
              "internalType": "uint256",
              "name": "price",
              "type": "uint256"
            },
            {
              "internalType": "bool",
              "name": "status",
              "type": "bool"
            }
          ],
          "internalType": "struct BookStore.Book",
          "name": "",
          "type": "tuple"
        }
      ],
      "stateMutability": "view",
      "type": "function"
    },
    {
      "inputs": [],
      "name": "ownerAddress",
      "outputs": [
        {
          "internalType": "address",
          "name": "",
          "type": "address"
        }
      ],
      "stateMutability": "view",
      "type": "function"
    },
    {
      "inputs": [
        {
          "internalType": "uint256",
          "name": "bookId",
          "type": "uint256"
        },
        {
          "internalType": "bool",
          "name": "status",
          "type": "bool"
        }
      ],
      "name": "setStatus",
      "outputs": [],
      "stateMutability": "nonpayable",
      "type": "function"
    }
  ],
  "bytecode": "0x6080604052336000806101000a81548173ffffffffffffffffffffffffffffffffffffffff021916908373ffffffffffffffffffffffffffffffffffffffff16021790555034801561005057600080fd5b506124a6806100606000396000f3fe608060405234801561001057600080fd5b50600436106100935760003560e01c80638719e8ac116100665780638719e8ac1461011f5780638f84aa091461013b578063b1a5584b14610159578063d6c084d914610175578063e3bed4841461019357610093565b80630e05cdbf146100985780634251921e146100b45780634428fef9146100d3578063723d253314610103575b600080fd5b6100b260048036038101906100ad9190611812565b6101b1565b005b6100bc6102bd565b6040516100ca929190611c06565b60405180910390f35b6100ed60048036038101906100e89190611c3d565b610905565b6040516100fa9190611d44565b60405180910390f35b61011d60048036038101906101189190611dcc565b610c76565b005b61013960048036038101906101349190611ede565b610e2e565b005b610143610f21565b6040516101509190611f2d565b60405180910390f35b610173600480360381019061016e9190611f48565b610f4a565b005b61017d61112d565b60405161018a919061205a565b60405180910390f35b61019b61113e565b6040516101a8919061205a565b60405180910390f35b60006002805490509050600260405180606001604052808381526020018581526020018481525090806001815401808255809150506001900390600052602060002090600302016000909190919091506000820151816000015560208201518160010190816102209190612288565b50604082015181600201555050336003600083815260200190815260200160002060006101000a81548173ffffffffffffffffffffffffffffffffffffffff021916908373ffffffffffffffffffffffffffffffffffffffff1602179055507f5143360ab707006cb7454f902037f2b12a7dec84b72d8bb2aa7d4f612e21f48933826040516102b0929190612369565b60405180910390a1505050565b606080600060028054905067ffffffffffffffff8111156102e1576102e06116b1565b5b60405190808252806020026020018201604052801561031a57816020015b6103076115fd565b8152602001906001900390816102ff5790505b5090506000805b6002805490508110156104a7573373ffffffffffffffffffffffffffffffffffffffff166003600083815260200190815260200160002060009054906101000a900473ffffffffffffffffffffffffffffffffffffffff1673ffffffffffffffffffffffffffffffffffffffff160361049457600281815481106103a8576103a7612392565b5b9060005260206000209060030201604051806060016040529081600082015481526020016001820180546103db906120ab565b80601f0160208091040260200160405190810160405280929190818152602001828054610407906120ab565b80156104545780601f1061042957610100808354040283529160200191610454565b820191906000526020600020905b81548152906001019060200180831161043757829003601f168201915b5050505050815260200160028201548152505083838151811061047a57610479612392565b5b60200260200101819052508180610490906123f0565b9250505b808061049f906123f0565b915050610321565b5060008167ffffffffffffffff8111156104c4576104c36116b1565b5b6040519080825280602002602001820160405280156104fd57816020015b6104ea61161e565b8152602001906001900390816104e25790505b50905060008267ffffffffffffffff81111561051c5761051b6116b1565b5b60405190808252806020026020018201604052801561055557816020015b6105426115fd565b81526020019060019003908161053a5790505b50905060005b838110156108f657600085828151811061057857610577612392565b5b60200260200101516040015190506001818154811061059a57610599612392565b5b906000526020600020906009020160405180610120016040529081600082015481526020016001820160009054906101000a900473ffffffffffffffffffffffffffffffffffffffff1673ffffffffffffffffffffffffffffffffffffffff1673ffffffffffffffffffffffffffffffffffffffff168152602001600282018054610624906120ab565b80601f0160208091040260200160405190810160405280929190818152602001828054610650906120ab565b801561069d5780601f106106725761010080835404028352916020019161069d565b820191906000526020600020905b81548152906001019060200180831161068057829003601f168201915b50505050508152602001600382015481526020016004820180546106c0906120ab565b80601f01602080910402602001604051908101604052809291908181526020018280546106ec906120ab565b80156107395780601f1061070e57610100808354040283529160200191610739565b820191906000526020600020905b81548152906001019060200180831161071c57829003601f168201915b50505050508152602001600582018054610752906120ab565b80601f016020809104026020016040519081016040528092919081815260200182805461077e906120ab565b80156107cb5780601f106107a0576101008083540402835291602001916107cb565b820191906000526020600020905b8154815290600101906020018083116107ae57829003601f168201915b505050505081526020016006820180546107e4906120ab565b80601f0160208091040260200160405190810160405280929190818152602001828054610810906120ab565b801561085d5780601f106108325761010080835404028352916020019161085d565b820191906000526020600020905b81548152906001019060200180831161084057829003601f168201915b50505050508152602001600782015481526020016008820160009054906101000a900460ff16151515158152505084838151811061089e5761089d612392565b5b60200260200101819052508582815181106108bc576108bb612392565b5b60200260200101518383815181106108d7576108d6612392565b5b60200260200101819052505080806108ee906123f0565b91505061055b565b50818195509550505050509091565b61090d61161e565b61091561161e565b60005b600180549050811015610c6c57836001828154811061093a57610939612392565b5b90600052602060002090600902016000015403610c59576001818154811061096557610964612392565b5b906000526020600020906009020160405180610120016040529081600082015481526020016001820160009054906101000a900473ffffffffffffffffffffffffffffffffffffffff1673ffffffffffffffffffffffffffffffffffffffff1673ffffffffffffffffffffffffffffffffffffffff1681526020016002820180546109ef906120ab565b80601f0160208091040260200160405190810160405280929190818152602001828054610a1b906120ab565b8015610a685780601f10610a3d57610100808354040283529160200191610a68565b820191906000526020600020905b815481529060010190602001808311610a4b57829003601f168201915b5050505050815260200160038201548152602001600482018054610a8b906120ab565b80601f0160208091040260200160405190810160405280929190818152602001828054610ab7906120ab565b8015610b045780601f10610ad957610100808354040283529160200191610b04565b820191906000526020600020905b815481529060010190602001808311610ae757829003601f168201915b50505050508152602001600582018054610b1d906120ab565b80601f0160208091040260200160405190810160405280929190818152602001828054610b49906120ab565b8015610b965780601f10610b6b57610100808354040283529160200191610b96565b820191906000526020600020905b815481529060010190602001808311610b7957829003601f168201915b50505050508152602001600682018054610baf906120ab565b80601f0160208091040260200160405190810160405280929190818152602001828054610bdb906120ab565b8015610c285780601f10610bfd57610100808354040283529160200191610c28565b820191906000526020600020905b815481529060010190602001808311610c0b57829003601f168201915b50505050508152602001600782015481526020016008820160009054906101000a900460ff16151515158152505091505b8080610c64906123f0565b915050610918565b5080915050919050565b6000600180549050905060016040518061012001604052808381526020013373ffffffffffffffffffffffffffffffffffffffff1681526020018a81526020018961ffff1681526020018881526020018781526020018681526020018561ffff16815260200184151581525090806001815401808255809150506001900390600052602060002090600902016000909190919091506000820151816000015560208201518160010160006101000a81548173ffffffffffffffffffffffffffffffffffffffff021916908373ffffffffffffffffffffffffffffffffffffffff1602179055506040820151816002019081610d719190612288565b50606082015181600301556080820151816004019081610d919190612288565b5060a0820151816005019081610da79190612288565b5060c0820151816006019081610dbd9190612288565b5060e082015181600701556101008201518160080160006101000a81548160ff02191690831515021790555050507f10545577c692a22f651e69221c47ad4418e40434b36f4e2411bc54007aa8cbb93382604051610e1c929190612369565b60405180910390a15050505050505050565b3373ffffffffffffffffffffffffffffffffffffffff1660018381548110610e5957610e58612392565b5b906000526020600020906009020160010160009054906101000a900473ffffffffffffffffffffffffffffffffffffffff1673ffffffffffffffffffffffffffffffffffffffff1603610f1d578060018381548110610ebb57610eba612392565b5b906000526020600020906009020160080160006101000a81548160ff0219169083151502179055507f9bb0721d7738dd0c4fe50400e54e93d0f2566e924e22d51fc5f9623c2a954c158282604051610f14929190612447565b60405180910390a15b5050565b60008060009054906101000a900473ffffffffffffffffffffffffffffffffffffffff16905090565b3373ffffffffffffffffffffffffffffffffffffffff1660018881548110610f7557610f74612392565b5b906000526020600020906009020160010160009054906101000a900473ffffffffffffffffffffffffffffffffffffffff1673ffffffffffffffffffffffffffffffffffffffff1603611124578560018881548110610fd757610fd6612392565b5b90600052602060002090600902016002019081610ff49190612288565b508461ffff166001888154811061100e5761100d612392565b5b906000526020600020906009020160030181905550836001888154811061103857611037612392565b5b906000526020600020906009020160040190816110559190612288565b50826001888154811061106b5761106a612392565b5b906000526020600020906009020160050190816110889190612288565b50816001888154811061109e5761109d612392565b5b906000526020600020906009020160060190816110bb9190612288565b508061ffff16600188815481106110d5576110d4612392565b5b9060005260206000209060090201600701819055507f5fb98e20b834614eaa3cb6fa499148b4dfd407db6a2c8032daec6333e438365e338860405161111b929190612369565b60405180910390a15b50505050505050565b6060611139600161114f565b905090565b606061114a600061114f565b905090565b6060600060018054905067ffffffffffffffff811115611172576111716116b1565b5b6040519080825280602002602001820160405280156111ab57816020015b61119861161e565b8152602001906001900390816111905790505b5090506000805b60018054905081101561154157841515600182815481106111d6576111d5612392565b5b906000526020600020906009020160080160009054906101000a900460ff1615150361152e57600181815481106112105761120f612392565b5b906000526020600020906009020160405180610120016040529081600082015481526020016001820160009054906101000a900473ffffffffffffffffffffffffffffffffffffffff1673ffffffffffffffffffffffffffffffffffffffff1673ffffffffffffffffffffffffffffffffffffffff16815260200160028201805461129a906120ab565b80601f01602080910402602001604051908101604052809291908181526020018280546112c6906120ab565b80156113135780601f106112e857610100808354040283529160200191611313565b820191906000526020600020905b8154815290600101906020018083116112f657829003601f168201915b5050505050815260200160038201548152602001600482018054611336906120ab565b80601f0160208091040260200160405190810160405280929190818152602001828054611362906120ab565b80156113af5780601f10611384576101008083540402835291602001916113af565b820191906000526020600020905b81548152906001019060200180831161139257829003601f168201915b505050505081526020016005820180546113c8906120ab565b80601f01602080910402602001604051908101604052809291908181526020018280546113f4906120ab565b80156114415780601f1061141657610100808354040283529160200191611441565b820191906000526020600020905b81548152906001019060200180831161142457829003601f168201915b5050505050815260200160068201805461145a906120ab565b80601f0160208091040260200160405190810160405280929190818152602001828054611486906120ab565b80156114d35780601f106114a8576101008083540402835291602001916114d3565b820191906000526020600020905b8154815290600101906020018083116114b657829003601f168201915b50505050508152602001600782015481526020016008820160009054906101000a900460ff16151515158152505083838151811061151457611513612392565b5b6020026020010181905250818061152a906123f0565b9250505b8080611539906123f0565b9150506111b2565b5060008167ffffffffffffffff81111561155e5761155d6116b1565b5b60405190808252806020026020018201604052801561159757816020015b61158461161e565b81526020019060019003908161157c5790505b50905060005b828110156115f1578381815181106115b8576115b7612392565b5b60200260200101518282815181106115d3576115d2612392565b5b602002602001018190525080806115e9906123f0565b91505061159d565b50809350505050919050565b60405180606001604052806000815260200160608152602001600081525090565b60405180610120016040528060008152602001600073ffffffffffffffffffffffffffffffffffffffff1681526020016060815260200160008152602001606081526020016060815260200160608152602001600081526020016000151581525090565b6000604051905090565b600080fd5b600080fd5b600080fd5b600080fd5b6000601f19601f8301169050919050565b7f4e487b7100000000000000000000000000000000000000000000000000000000600052604160045260246000fd5b6116e9826116a0565b810181811067ffffffffffffffff82111715611708576117076116b1565b5b80604052505050565b600061171b611682565b905061172782826116e0565b919050565b600067ffffffffffffffff821115611747576117466116b1565b5b611750826116a0565b9050602081019050919050565b82818337600083830152505050565b600061177f61177a8461172c565b611711565b90508281526020810184848401111561179b5761179a61169b565b5b6117a684828561175d565b509392505050565b600082601f8301126117c3576117c2611696565b5b81356117d384826020860161176c565b91505092915050565b6000819050919050565b6117ef816117dc565b81146117fa57600080fd5b50565b60008135905061180c816117e6565b92915050565b600080604083850312156118295761182861168c565b5b600083013567ffffffffffffffff81111561184757611846611691565b5b611853858286016117ae565b9250506020611864858286016117fd565b9150509250929050565b600081519050919050565b600082825260208201905092915050565b6000819050602082019050919050565b6118a3816117dc565b82525050565b600073ffffffffffffffffffffffffffffffffffffffff82169050919050565b60006118d4826118a9565b9050919050565b6118e4816118c9565b82525050565b600081519050919050565b600082825260208201905092915050565b60005b83811015611924578082015181840152602081019050611909565b60008484015250505050565b600061193b826118ea565b61194581856118f5565b9350611955818560208601611906565b61195e816116a0565b840191505092915050565b60008115159050919050565b61197e81611969565b82525050565b60006101208301600083015161199d600086018261189a565b5060208301516119b060208601826118db565b50604083015184820360408601526119c88282611930565b91505060608301516119dd606086018261189a565b50608083015184820360808601526119f58282611930565b91505060a083015184820360a0860152611a0f8282611930565b91505060c083015184820360c0860152611a298282611930565b91505060e0830151611a3e60e086018261189a565b50610100830151611a53610100860182611975565b508091505092915050565b6000611a6a8383611984565b905092915050565b6000602082019050919050565b6000611a8a8261186e565b611a948185611879565b935083602082028501611aa68561188a565b8060005b85811015611ae25784840389528151611ac38582611a5e565b9450611ace83611a72565b925060208a01995050600181019050611aaa565b50829750879550505050505092915050565b600081519050919050565b600082825260208201905092915050565b6000819050602082019050919050565b6000606083016000830151611b38600086018261189a565b5060208301518482036020860152611b508282611930565b9150506040830151611b65604086018261189a565b508091505092915050565b6000611b7c8383611b20565b905092915050565b6000602082019050919050565b6000611b9c82611af4565b611ba68185611aff565b935083602082028501611bb885611b10565b8060005b85811015611bf45784840389528151611bd58582611b70565b9450611be083611b84565b925060208a01995050600181019050611bbc565b50829750879550505050505092915050565b60006040820190508181036000830152611c208185611a7f565b90508181036020830152611c348184611b91565b90509392505050565b600060208284031215611c5357611c5261168c565b5b6000611c61848285016117fd565b91505092915050565b600061012083016000830151611c83600086018261189a565b506020830151611c9660208601826118db565b5060408301518482036040860152611cae8282611930565b9150506060830151611cc3606086018261189a565b5060808301518482036080860152611cdb8282611930565b91505060a083015184820360a0860152611cf58282611930565b91505060c083015184820360c0860152611d0f8282611930565b91505060e0830151611d2460e086018261189a565b50610100830151611d39610100860182611975565b508091505092915050565b60006020820190508181036000830152611d5e8184611c6a565b905092915050565b600061ffff82169050919050565b611d7d81611d66565b8114611d8857600080fd5b50565b600081359050611d9a81611d74565b92915050565b611da981611969565b8114611db457600080fd5b50565b600081359050611dc681611da0565b92915050565b600080600080600080600060e0888a031215611deb57611dea61168c565b5b600088013567ffffffffffffffff811115611e0957611e08611691565b5b611e158a828b016117ae565b9750506020611e268a828b01611d8b565b965050604088013567ffffffffffffffff811115611e4757611e46611691565b5b611e538a828b016117ae565b955050606088013567ffffffffffffffff811115611e7457611e73611691565b5b611e808a828b016117ae565b945050608088013567ffffffffffffffff811115611ea157611ea0611691565b5b611ead8a828b016117ae565b93505060a0611ebe8a828b01611d8b565b92505060c0611ecf8a828b01611db7565b91505092959891949750929550565b60008060408385031215611ef557611ef461168c565b5b6000611f03858286016117fd565b9250506020611f1485828601611db7565b9150509250929050565b611f27816118c9565b82525050565b6000602082019050611f426000830184611f1e565b92915050565b600080600080600080600060e0888a031215611f6757611f6661168c565b5b6000611f758a828b016117fd565b975050602088013567ffffffffffffffff811115611f9657611f95611691565b5b611fa28a828b016117ae565b9650506040611fb38a828b01611d8b565b955050606088013567ffffffffffffffff811115611fd457611fd3611691565b5b611fe08a828b016117ae565b945050608088013567ffffffffffffffff81111561200157612000611691565b5b61200d8a828b016117ae565b93505060a088013567ffffffffffffffff81111561202e5761202d611691565b5b61203a8a828b016117ae565b92505060c061204b8a828b01611d8b565b91505092959891949750929550565b600060208201905081810360008301526120748184611a7f565b905092915050565b7f4e487b7100000000000000000000000000000000000000000000000000000000600052602260045260246000fd5b600060028204905060018216806120c357607f821691505b6020821081036120d6576120d561207c565b5b50919050565b60008190508160005260206000209050919050565b60006020601f8301049050919050565b600082821b905092915050565b60006008830261213e7fffffffffffffffffffffffffffffffffffffffffffffffffffffffffffffffff82612101565b6121488683612101565b95508019841693508086168417925050509392505050565b6000819050919050565b600061218561218061217b846117dc565b612160565b6117dc565b9050919050565b6000819050919050565b61219f8361216a565b6121b36121ab8261218c565b84845461210e565b825550505050565b600090565b6121c86121bb565b6121d3818484612196565b505050565b5b818110156121f7576121ec6000826121c0565b6001810190506121d9565b5050565b601f82111561223c5761220d816120dc565b612216846120f1565b81016020851015612225578190505b612239612231856120f1565b8301826121d8565b50505b505050565b600082821c905092915050565b600061225f60001984600802612241565b1980831691505092915050565b6000612278838361224e565b9150826002028217905092915050565b612291826118ea565b67ffffffffffffffff8111156122aa576122a96116b1565b5b6122b482546120ab565b6122bf8282856121fb565b600060209050601f8311600181146122f257600084156122e0578287015190505b6122ea858261226c565b865550612352565b601f198416612300866120dc565b60005b8281101561232857848901518255600182019150602085019450602081019050612303565b868310156123455784890151612341601f89168261224e565b8355505b6001600288020188555050505b505050505050565b612363816117dc565b82525050565b600060408201905061237e6000830185611f1e565b61238b602083018461235a565b9392505050565b7f4e487b7100000000000000000000000000000000000000000000000000000000600052603260045260246000fd5b7f4e487b7100000000000000000000000000000000000000000000000000000000600052601160045260246000fd5b60006123fb826117dc565b91507fffffffffffffffffffffffffffffffffffffffffffffffffffffffffffffffff820361242d5761242c6123c1565b5b600182019050919050565b61244181611969565b82525050565b600060408201905061245c600083018561235a565b6124696020830184612438565b939250505056fea264697066735822122048f5a368eabff4c8454083b1c31661d03c8594b9e8dac4b69ed3cb424379cdef64736f6c63430008110033",
  "linkReferences": {},
  "deployedLinkReferences": {}
}